:100000000C94BE010C94DB010C94DB010C94DB011D
:100010000C94DB010C94DB010C94DB010C94DB01F0
:100020000C94DB010C94DB010C94DB010C94DB01E0
:100030000C94DB010C94DB010C94DB010C94DB01D0
:100040000C94DB010C94DB010C94DB010C94DB01C0
:100050000C94DB010C94DB010C94DB010C94DB01B0
:100060000C94DB010C94DB0172202D20526561643D
:1000700020436172640D0A0063202D20436C65618A
:10008000722050617373776F72640D0A006C202DBB
:10009000204C6F636B0D0A0075202D204174746530
:1000A0006D707420556E6C6F636B0D0A003F202DD0
:1000B00020526561642043617264205374617475D9
:1000C000730D0A000D0A43727970746B6565706573
:1000D00072205344204361726420546F6F6C0D0A88
:1000E0000025635B324A000A436172642069732011
:1000F000616C726561647920756E6C6F636B6564A9
:100100002E000A556E6C6F636B204661696C6564E6
:100110003A20556E61626C6520746F20756E6C6F4D
:10012000636B20636172642E000A556E6C6F636BA3
:10013000204661696C65643A20417474656D707421
:10014000696E6720756E6C6F636B20616761696EA5
:100150002E000A417474656D7074696E6720746F47
:1001600020756E6C6F636B20636172642E000A549D
:100170006865206361726420697320616C726561D7
:100180006479206C6F636B65642E000A4661696C4C
:1001900065643A2074686572652077617320616ECA
:1001A000206572726F7220617474656D7074696E0F
:1001B0006720746F206C6F636B20636172642E0024
:1001C0000A417474656D7074696E6720746F206C79
:1001D0006F636B20636172642E000D0A4174746555
:1001E0006D7074696E6720746F2073657420706120
:1001F0007373776F72642E000A4572726F723A20C1
:10020000556E61626C6520746F2072656164206256
:100210006C6F636B2E000A54686520636172642002
:100220006973206E6F74206C6F636B65642E000AB7
:100230004661696C65643A20546865206361726444
:10024000206973207374696C6C206C6F636B6564D8
:100250002E000A4661696C656421205265747279CA
:10026000696E672E2E2E000D0A436172642052655E
:100270006769737465727320636F756C64206E6F49
:100280007420626520726561642E0025303258202A
:10029000000D0A4349443A20002530325820000D11
:1002A0000A4353443A20002530325820000D0A4FAB
:1002B00043523A20000D0A436172642054797065FC
:1002C0003A202564000A0D0A0D556E61626C6520A6
:1002D000746F20696E697469616C697A6520636105
:1002E00072642E000A2563004C6F636B65640A001C
:1002F000556E6C6F636B65640A000D0A5061737311
:10030000776F7264205374617475733A20002025EE
:10031000730A0D002530325820002025730A0D2560
:100320003034583A20000A0D436F6E74656E747352
:10033000206F6620626C6F636B2062756666657203
:100340003A002563000A0A506C6561736520456EAA
:100350007465722050617373776F72643A0D0A008E
:100360000A45786368616E696E6720427974653A00
:10037000202563000A646F6E652E0A0011241FBEDB
:10038000CFEFD8E0DEBFCDBF11E0A0E0B1E0E0EFFD
:10039000F5E102C005900D92AC31B107D9F713E039
:1003A000ACE1B1E001C01D92AB35B107E1F70E94AD
:1003B00057030C94F60A0C940000DF92EF92FF9220
:1003C0000F931F93D82E7A018B0187FF0CC087E70C
:1003D00040E050E060E070E00E94DD01823008F013
:1003E00062C08FE7D8222A9A8FEF8EBD0DB407FE28
:1003F000FDCF8EB52A988FEF8EBD0DB407FEFDCFD1
:100400008EB58D2D80648EBD0DB407FEFDCF8EB5EB
:10041000812F9927AA27BB278EBD0DB407FEFDCFDC
:100420008EB5C801AA27BB278EBD0DB407FEFDCF30
:100430008EB5BB27A12F902F8F2D8EBD0DB407FE3B
:10044000FDCF8EB5EEBC0DB407FEFDCF8EB588E4B2
:10045000D81611F487E801C085E98EBD0DB407FEFA
:10046000FDCF8EB58FEF8EBD0DB407FEFDCF9EB5CF
:1004700097FDF9CF80E5D81671F08D1530F080EC3E
:10048000D80E81E08D1570F006C087E7D81619F0F8
:1004900089EED81639F42A9A8FEF8EBD0DB407FE77
:1004A000FDCF8EB5892F1F910F91FF90EF90DF90B8
:1004B00008958DE440E050E060E070E00E94DD01CE
:1004C000809331038FEF8EBD0DB407FEFDCF8EB547
:1004D000809332038FEF8EBD0DB407FEFDCF8EB536
:1004E00080E0089520E030E09FEF9EBD0DB407FE50
:1004F000FDCF8EB58F3F29F42F5F3F4F2436310556
:10050000A1F70895DF92EF92FF920F931F93CF937D
:10051000DF93182F2A9A2A988AE640E050E060E09C
:1005200070E00E94DD01882309F069C08EEF8EBD66
:100530000DB407FEFDCF8EB517701EBD0DB407FEBE
:10054000FDCF8EB5809134038EBD0DB407FEFDCF77
:100550008EB501E213E0C0E0D0E0DD24DA9430E6AD
:10056000E32E33E0F32E8091340390E0C817D907CF
:10057000E0F400D000D0EDB7FEB73196ADB7BEB70E
:100580001296FC92EE921197D8018C91828313827D
:100590000E941908F80180818EBD0F900F900F9076
:1005A0000F900DB407FEFDCF04C0DEBC0DB407FEF6
:1005B000FDCF8EB521960F5F1F4FF2E0C030DF07F1
:1005C00091F68FEF8EBD0DB407FEFDCF8EB58FEF88
:1005D0008EBD0DB407FEFDCF8EB52FEF3FEF9FEF21
:1005E0009EBD0DB407FEFDCF8EB5882321F42150AA
:1005F0003040B1F704C0232B11F080E001C08FEF31
:10060000DF91CF911F910F91FF90EF90DF900895B0
:100610000F931F93CF93DF9384EF91E028EC30E0AA
:10062000F9013197F1F70197D9F700D085E493E00C
:10063000ADB7BEB712969C938E9311970E9419087E
:1006400000E00F900F90C2E4D3E00E94CA07882315
:10065000E1F380915503909156030E94D707182F1C
:1006600000D000D0EDB7FEB73196ADB7BEB7129649
:10067000DC93CE931197828313820E9419080F9006
:100680000F900F900F901F3711F40150DECF1D30E7
:1006900039F400933403DF91CF911F910F910895A6
:1006A000E02FF0E0EF5DFC4F10830F5FCECF3F9265
:1006B0004F925F926F927F928F929F92AF92BF9272
:1006C000CF92DF92EF92FF920F931F93DF93CF931E
:1006D000CDB7DEB761970FB6F894DEBF0FBECDBFC2
:1006E000229A2A9A85B1886285B984B1886284B9D0
:1006F0002C9A83E58CBD0E94B9072EE031E030933F
:1007000058032093570380E091E090935603809321
:10071000550330935A0320935903789400D000D0A6
:1007200081EE90E0ADB7BEB712969C938E93119771
:100730008BE190E014969C938E9313970E94190876
:100740000F900F9084EC90E0EDB7FEB79283818319
:100750000E9419088DEA90E0ADB7BEB712969C933F
:100760008E9311970E94190888E990E0EDB7FEB7C3
:10077000928381830E9419088DE890E0ADB7BEB7DF
:1007800012969C938E9311970E94190888E790E027
:10079000EDB7FEB7928381830E94190888E690E046
:1007A000ADB7BEB712969C938E9311970E9419080D
:1007B00024EF31E00F900F9006C088EC90E0019795
:1007C000F1F72150304021153105B9F70E94CA07D1
:1007D0008823C9F180915503909156030E94D70751
:1007E000182F00D000D0EDB7FEB7319684EE92E01E
:1007F000ADB7BEB712969C938E9311971283138256
:100800000E9419080F900F900F900F901C36A9F0BE
:100810001D3628F41F3359F01336A9F411C01237CE
:1008200019F0153781F406C085E0882E0EC004E06B
:10083000802E0BC017E0812E08C0B6E08B2E05C0BD
:10084000ABE08A2E02C0F3E08F2E80911C01881647
:1008500009F474C3833009F071C3109233032A9AE8
:1008600080E090E02FEF2EBD0DB407FEFDCF3EB52A
:1008700001968A309105B9F700E010E080E440E08D
:1008800050E060E070E00E94DD01813089F00F5F90
:100890001F4F0031110591F700D085EC92E0EDB7C4
:1008A000FEB7928381830E9419080F900F905FC05A
:1008B00080E540E052E060E070E00E94DD0188E405
:1008C0004AEA51E060E070E00E94DD018130E1F42D
:1008D00080E090E02FEF2EBD0DB407FEFDCF3EB5BA
:1008E000019684309105B9F700E21EE489EE40E0FC
:1008F00050E060E070E40E94DD01882319F00150AF
:100900001040A1F782E02BC08AE740E050E060E0B1
:1009100070E00E94DD01813061F480E090E02FEF13
:100920002EBD0DB407FEFDCF3EB501968430910576
:10093000B9F700E21EE481E440E050E060E070E0DE
:100940000E94DD01882319F001501040A1F780E5D5
:1009500040E052E060E070E00E94DD0181E08093C1
:1009600033038FEF8EBD0DB407FEFDCF8EB5F4E0DF
:100970008F1609F058C100D000D0EDB7FEB7319600
:1009800085EB92E0ADB7BEB712969C938E9311970C
:1009900080913303828313820E9419080F900F9075
:1009A0000F900F90809133038230E1F488E44AEA9B
:1009B00051E060E070E00E94DD01882379F5EDE10F
:1009C000F1E09FEF9EBD0DB407FEFDCF8EB5819384
:1009D000B1E0E132FB07B1F78FEF8EBD0DB407FE3A
:1009E000FDCF1BC08AE740E050E060E070E00E946D
:1009F000DD01882399F4EDE1F1E09FEF9EBD0DB498
:100A000007FEFDCF8EB5819381E0E132F807B1F7A3
:100A10008FEF8EBD0DB407FEFDCF8EB589E440E0AB
:100A200050E060E070E00E94DD010E9472028E3FA3
:100A300009F0EFC0E5E3CE2EE3E0DE2EF6019FEFF6
:100A40009EBD0DB407FEFDCF8EB58193A3E0E534C6
:100A5000FA07B1F78FEF8EBD0DB407FEFDCF8EB54F
:100A60008AE440E050E060E070E00E94DD010E9416
:100A700072028E3F09F0CDC075E4E72E73E0F72EC9
:100A8000F7019FEF9EBD0DB407FEFDCF8EB581939C
:100A9000B3E0E535FB07B1F78FEF8EBD0DB407FE70
:100AA000FDCF8EB50E945902882309F0B2C000D054
:100AB0008DEA92E0EDB7FEB7928381830E94190818
:100AC00000D0EDB7FEB7319607EA12E0ADB7BEB77A
:100AD00012961C930E93119780911D0182831382AD
:100AE0000E941908EDB7FEB73196ADB7BEB71296A2
:100AF0001C930E93119780911E01828313820E9492
:100B00001908EDB7FEB73196ADB7BEB712961C9374
:100B10000E93119780911F01828313820E941908FE
:100B2000EDB7FEB73196ADB7BEB712961C930E93D4
:100B3000119780912001828313820E9419080F90DF
:100B40000F908FE992E0EDB7FEB7928381830E9408
:100B500019080F900F9000D000D0EDB7FEB7319676
:100B600089E992E0ADB7BEB712969C938E93119728
:100B7000D6018D916D01828313820E9419080F9016
:100B80000F900F900F90B5E4CB16B3E0DB0619F78A
:100B900000D081E992E0EDB7FEB7928381830E9495
:100BA00019080F900F9000D000D0EDB7FEB7319626
:100BB0008BE892E0ADB7BEB712969C938E931197D7
:100BC000D7018D917D01828313820E9419080F90B5
:100BD0000F900F900F90B5E5EB16B3E0FB0619F7F9
:100BE0000E94590200D08AEF92E0EDB7FEB79283DF
:100BF00081830E941908809132030F900F9080FD2D
:100C000004C000D080EF92E007C000D088EE92E0F0
:100C100039C000D087E692E0ADB7BEB712969C937C
:100C20008E93119787C1BBE08B16A9F50E945902DC
:100C30008091320380FF2BC00E94080382E00E9453
:100C400082020E9459028091320380FF18C000D0B6
:100C500082E592E0EDB7FEB7928381830E94190886
:100C60000F900F9082E00E9482020E9459028091B0
:100C7000320380FF63C100D08FE292E0CDCF00D07D
:100C800084E793E0EDB7FEB79283818353C100D030
:100C900086E192E0C1CFB5E08B1609F0C9C081E5CD
:100CA00040E050E060E070E00E94DD018823C9F57B
:100CB0000E9472028E3FA9F561E2662E61E0762EF7
:100CC000F3019FEF9EBD0DB407FEFDCF8EB581935E
:100CD00083E0E132F807B1F78FEF8EBD0DB407FE68
:100CE000FDCF8EB58FEF8EBD0DB407FEFDCF8EB557
:100CF000198A198200D0E6E2F3E0ADB7BEB71296CA
:100D0000FC93EE9311970E941908AA24BB24650155
:100D10000F900F902E010894411C511C5EE2352E5D
:100D200004C000D0E8EFF1E0FFC04FE0E42EF12C6A
:100D3000012D112DEA20FB200C211D21E114F104CD
:100D40000105110519F58DB79EB708970FB6F894F0
:100D50009EBF0FBE8DBFEDB7FEB731968AE193E01F
:100D6000ADB7BEB712969C938E9311975382428271
:100D7000A482B582C682D7820E941908ADB7BEB7D9
:100D800018960FB6F894BEBF0FBEADBF00D000D00E
:100D9000EDB7FEB7319684E193E0ADB7BEB71296DA
:100DA0009C938E931197D3018C91828313820E941E
:100DB0001908F30190800F900F900F900F90892DDC
:100DC00090E00E94D007892B29F4892D90E0C097EC
:100DD0000A9728F4F201EE0DFF1D908204C0F20183
:100DE000EE0DFF1D30820894A11CB11CC11CD11C4A
:100DF0000894611C711CF1E26F16F3E07F0609F0A4
:100E000094CF00D000D08EE093E0ADB7BEB712967D
:100E10009C938E931197CE01019614969C938E937A
:100E200013970E9419080F900F900F900F9086C093
:100E3000B6E08B16B1F50E9459028091320380FD15
:100E40002CC00E94080300D08AED91E0EDB7FEB7F8
:100E5000928381830E9419080F900F9081E00E9475
:100E600082020E94590200D0E0ECF1E0ADB7BEB7BB
:100E70001296FC93EE9311970E9419080F900F9011
:100E800084E00E9482020E9459028091320380FD18
:100E900044C000D0EBE8F1E047C000D0EEE6F1E05E
:100EA00043C0F7E08F1609F049C00E9459028091B3
:100EB000320380FF36C00E94080300D0E2E5F1E073
:100EC000ADB7BEB71296FC93EE9311970E94190826
:100ED0000F900F9080E40E9482020E94590280913C
:100EE000320380FF1AC000D0E9E2F1E0ADB7BEB72F
:100EF0001296FC93EE9311970E9419080F900F9091
:100F000080E40E9482020E9459028091320380FF95
:100F100015C000D0E2E0F1E007C000D0E4E7F3E064
:100F200003C000D0E7EEF0E0ADB7BEB71296FC9379
:100F3000EE9311970E9419080F900F9080921C0158
:100F400024EF31E03ACCCF93C82F8A3019F48DE0EA
:100F50000E94A3078091C00085FFFCCFC093C6000C
:100F6000CF9108958091C00087FFFCCF8091C6008B
:100F700008951092C5008CE08093C400E0ECF0E08E
:100F800080818D7F808386E08093C20088E180939A
:100F9000C10008958091C0008078089585FD4CC2FD
:100FA0008062911149C281568A51E0F70895CF932A
:100FB000DF93EC014B8140FF1AC046FF0AC04F7B14
:100FC0004B838E819F8101969F838E838A81282FF8
:100FD0002BC042FF13C0E881F9818081282F33277D
:100FE00027FD30952115310529F440624B832FEF01
:100FF0003FEF1BC03196F983E88311C0EA85FB857A
:10100000CE0109959C0197FF0AC09B812F5F3F4F3E
:1010100011F080E201C080E1892B8B83E8CF8E81C3
:101020009F8101969F838E8330E0C901DF91CF912C
:101030000895A0E0B0E0EFE1F8E00C94CF0AFE01E3
:10104000359661917191A0915703B0915803139611
:101050008C911397886013968C938091570390918D
:101060005803AF010E943F08E0915703F0915803E5
:101070002381277F23832096E2E00C94EB0AABE0E8
:10108000B0E0E5E4F8E00C94BF0A3C012B015A0102
:10109000FC0117821682838181FD03C06FEF7FEF11
:1010A000C6C19AE0892E1E010894211C311CF3014F
:1010B0002381F20123FD859123FF81912F01882354
:1010C00009F4B2C1853239F423FD859123FF819162
:1010D0002F01853229F490E0B3010E94350AE7CF51
:1010E000982FFF24EE249924FFE1FF15D0F09B32C6
:1010F00069F09C3228F4903259F0933291F40EC08A
:101100009D3249F0903369F441E024C052E0F52A61
:1011100084E0F82A28C098E0F92A25C0E0E1FE2AF8
:1011200022C0F7FC29C0892F80538A3070F4F6FE64
:1011300005C0989C902C1124980E15C0E89CE02CBA
:101140001124E80EF0E2FF2A0EC09E3229F4F6FCCC
:101150006BC140E4F42A07C09C3619F450E8F52A24
:1011600002C0983649F4F20123FD959123FF919135
:101170002F01992309F0B8CF892F8554833018F0B7
:101180008052833038F444E050E0A40EB51E5FE393
:1011900059830FC0933631F0933779F0933509F0C6
:1011A00056C020C0F5018081898342E050E0A40E42
:1011B000B51E610101E010E012C0F501C080D180D0
:1011C000F6FC03C06FEF7FEF02C0692D70E042E0D4
:1011D00050E0A40EB51EC6010E942A0A8C015FE7EA
:1011E000F52214C0F501C080D180F6FC03C06FEF7A
:1011F0007FEF02C0692D70E042E050E0A40EB51E02
:10120000C6010E941F0A8C0150E8F52AF3FE07C0B0
:101210001AC080E290E0B3010E94350AEA948E2D54
:1012200090E008171907A8F30EC0F601F7FC8591A6
:10123000F7FE81916F0190E0B3010E94350AE11041
:10124000EA94015010400115110579F7EAC094366F
:1012500011F0993669F5F7FE08C0F501208131815A
:101260004281538184E090E00AC0F5018081918140
:101270009C01442737FD4095542F82E090E0A80E52
:10128000B91E9FE6F92257FF09C050954095309549
:1012900021953F4F4F4F5F4FE0E8FE2ACA01B90149
:1012A000A1012AE030E00E94610AD82ED21840C085
:1012B000953729F41F2D1F7E2AE030E01DC01F2D19
:1012C000197F9F3661F0903720F4983509F0ACC053
:1012D0000FC0903739F0983709F0A6C004C028E055
:1012E00030E00AC0106114FD146020E130E004C059
:1012F00014FD166020E132E017FF08C0F50160819F
:1013000071818281938144E050E008C0F5018081C1
:101310009181BC0180E090E042E050E0A40EB51E57
:10132000A1010E94610AD82ED2188FE7F82EF1226F
:10133000F6FE0BC05EEFF522D91438F4F4FE07C0B8
:10134000F2FC05C08FEEF82202C01D2D01C0192D40
:10135000F4FE0DC0FE01ED0DF11D8081803319F406
:1013600099EEF92208C01F5FF2FE05C003C08F2D61
:10137000867809F01F5F0F2DF3FC14C0F0FE0FC03C
:101380001E1510F09D2C0BC09D2C9E0C911A1E2D2D
:1013900006C080E290E0B3010E94350A1F5F1E156F
:1013A000C0F304C01E1510F4E11A01C0EE2404FFBE
:1013B0000FC080E390E0B3010E94350A02FF1DC018
:1013C00001FD03C088E790E00EC088E590E00BC007
:1013D000802F867891F001FF02C08BE201C080E28D
:1013E000F7FC8DE290E0B3010E94350A06C080E36D
:1013F00090E0B3010E94350A9A94D914C0F3DA94AC
:10140000F101ED0DF11D808190E0B3010E94350ADC
:10141000DD20A9F706C080E290E0B3010E94350A02
:10142000EA94EE20C1F743CEF30166817781CB01C8
:101430002B96E2E10C94DB0A992788270895FC019A
:101440000590615070400110D8F7809590958E0FEF
:101450009F1F0895FC016150704001900110D8F762
:10146000809590958E0F9F1F08950F931F93CF9394
:10147000DF938C01EB018B8181FF1BC082FF0DC0CC
:101480002E813F818C819D812817390764F4E88182
:10149000F9810193F983E88306C0E885F985802FF7
:1014A0000995892B31F48E819F8101969F838E83CC
:1014B00002C00FEF1FEFC801DF91CF911F910F9175
:1014C0000895FA01AA27283051F1203181F1E894DA
:1014D0006F936E7F6E5F7F4F8F4F9F4FAF4FB1E027
:1014E0003ED0B4E03CD0670F781F891F9A1FA11D22
:1014F000680F791F8A1F911DA11D6A0F711D811D23
:10150000911DA11D20D009F468943F912AE0269FE7
:1015100011243019305D3193DEF6CF010895462F46
:101520004770405D4193B3E00FD0C9F7F6CF462F27
:101530004F70405D4A3318F0495D31FD4052419390
:1015400002D0A9F7EACFB4E0A6959795879577954D
:101550006795BA95C9F700976105710508959B01D4
:10156000AC010A2E06945795479537952795BA955D
:10157000C9F7620F731F841F951FA01D08952F9236
:101580003F924F925F926F927F928F929F92AF9213
:10159000BF92CF92DF92EF92FF920F931F93CF9360
:1015A000DF93CDB7DEB7CA1BDB0B0FB6F894DEBFF7
:1015B0000FBECDBF09942A88398848885F846E841D
:1015C0007D848C849B84AA84B984C884DF80EE8067
:1015D000FD800C811B81AA81B981CE0FD11D0FB670
:1015E000F894DEBF0FBECDBFED010895F894FFCF94
:1015F00000000001000000000000B2070000000031
:0C160000000200000000A3070000000032
:00000001FF
