:100000000C9475000C9492000C9492000C94920045
:100010000C9492000C9492000C9492000C94920018
:100020000C9492000C9492000C9492000C94920008
:100030000C9492000C9492000C9492000C949200F8
:100040000C9492000C9492000C9492000C949200E8
:100050000C9492000C9492000C9492000C949200D8
:100060000C9492000C9492000A25630072202D20BB
:100070005265616420436172640D0A0063202D2083
:10008000436C6561722050617373776F72640D0AFF
:10009000006C202D204C6F636B0D0A0075202D2005
:1000A000417474656D707420556E6C6F636B0D0ACE
:1000B000003F202D2052656164204361726420530B
:1000C00074617475730D0A000D0A506F6C79706855
:1000D000656D7573205344204361726420546F6FC3
:1000E0006C0D0A0025635B324A0011241FBECFEF5E
:1000F000D8E0DEBFCDBF11E0A0E0B1E0E6E0F9E07E
:1001000002C005900D92AC31B107D9F722E0ACE105
:10011000B1E001C01D92A433B207E1F70E94BF0015
:100120000C9481040C940000CF93C82F8A3019F4EA
:100130008DE00E9494008091C00085FFFCCFC093A9
:10014000C600CF9108958091C00087FFFCCF8091B9
:10015000C60008951092C5008CE08093C400E0ECC6
:10016000F0E080818D7F808386E08093C20088E10B
:100170008093C10008958091C00080780895229AEC
:100180002A9A85B1886285B984B1886284B92C9A2B
:1001900083E58CBD0E94AA008EE091E0909331022D
:1001A0008093300220E031E030932F0220932E0222
:1001B000909333028093320278941F928BE18F9355
:1001C00084EE90E09F938F930E94930188EC90E0DF
:1001D0009F938F930E94930181EB90E09F938F9365
:1001E0000E9493018CE990E09F938F930E9493016A
:1001F00081E990E09F938F930E9493018CE790E0B8
:100200009F938F930E9493018CE690E09F938F932E
:100210000E949301EDE2F1E08DB79EB740960FB6D4
:10022000F8949EBF0FBE8DBF80E090E039E8282F84
:1002300087FD2327208347E050E06081262F220F8F
:1002400066FD2327208341505109B9F70196319665
:10025000811521E0920759F7C8E6D0E08FE798E3CF
:1002600021E0815090402040E1F700C000000E9452
:10027000BB00882389F080912E0290912F020E946A
:10028000550199279F938F93DF93CF930E949301FA
:100290000F900F900F900F9080911C018823F1F226
:1002A0008330E1F610921C01D9CFCF93DF93EC019C
:1002B0002B8120FF33C026FF0AC02F7B2B838E812A
:1002C0009F8101969F838E838A8190E029C022FFBF
:1002D0000FC0E881F9818081082E000C990B0097EE
:1002E00019F420622B831AC03196F983E8830EC07B
:1002F000EA85FB85099597FF09C02B81019611F0CE
:1003000080E201C080E1822B8B8308C02E813F8177
:100310002F5F3F4F3F832E83992702C08FEF9FEFC0
:10032000DF91CF910895A0E0B0E0E9E9F1E00C940D
:100330005804AE01495F5F4FDA016D917D91AD01C7
:100340000EE212E0F80182819381DC0113962C9178
:100350001397286013962C930E94B901D801129626
:10036000ED91FC9113972381277F2383E4E00C9484
:100370007404ABE0B0E0EFEBF1E00C944A046C01E4
:100380007B018A01FC0117821682838181FFCCC127
:10039000CE0101963C01F6019381F70193FD859111
:1003A00093FF81917F01882309F4BAC1853239F422
:1003B00093FD859193FF81917F01853229F4B601E8
:1003C00090E00E94B003E7CF912C212C312CFFE16B
:1003D000F315D8F08B3279F038F4803279F083322B
:1003E000A1F4232D20611DC08D3261F0803369F4AA
:1003F000232D216016C0832D8260382EE32DE4600A
:100400003E2E2AC0F32DF8601DC037FC2DC020ED14
:10041000280F2A3040F08E32B9F436FC81C1232DEA
:100420002064322E19C036FE06C08AE0989E200D48
:100430001124922E11C0EAE02E9E200D1124222EAE
:10044000F32DF0623F2E08C08C3621F4832D806896
:10045000382E02C0883641F4F70193FD859193FF51
:1004600081917F018111B3CF982F9F7D9554933057
:1004700028F40C5F1F4F9FE399830DC0833631F042
:10048000833771F0833509F059C021C0F8018081AC
:1004900089830E5F1F4F88248394912C530113C0CE
:1004A0002801F2E04F0E511CF801A080B18036FE09
:1004B00003C0692D70E002C06FEF7FEFC5010E949D
:1004C000A5034C018201F32DFF773F2E16C02801B2
:1004D00022E0420E511CF801A080B18036FE03C01C
:1004E000692D70E002C06FEF7FEFC5010E949A0393
:1004F0004C01F32DF0683F2E820133FC1BC0822D8E
:1005000090E088169906B0F4B60180E290E00E946F
:10051000B0032A94F4CFF50137FC859137FE819121
:100520005F01B60190E00E94B00321102A9421E0FF
:10053000821A91088114910471F7E8C0843611F091
:10054000893641F5F80137FE07C0608171818281EB
:1005500093810C5F1F4F08C060817181072E000CD2
:10056000880B990B0E5F1F4FF32DFF763F2E97FFE1
:1005700009C090958095709561957F4F8F4F9F4FE3
:10058000F0683F2E2AE030E0A3010E94EC03882EA1
:10059000861845C0853731F4232D2F7EB22E2AE0F0
:1005A00030E025C0932D997FB92E8F36C1F018F415
:1005B000883579F0B5C0803719F0883721F0B0C0A0
:1005C000E92FE061BE2EB4FE0DC0FB2DF460BF2EFE
:1005D00009C034FE0AC0292F2660B22E06C028E0CA
:1005E00030E005C020E130E002C020E132E0F80157
:1005F000B7FE07C060817181828193810C5F1F4FBC
:1006000006C06081718180E090E00E5F1F4FA30102
:100610000E94EC03882E8618FB2DFF773F2E36FEB6
:100620000DC0232D2E7FA22E891458F434FE0BC04A
:1006300032FC09C0832D8E7EA82E05C0B82CA32CB9
:1006400003C0B82C01C0B92CA4FE0FC0FE01E80DF8
:10065000F11D8081803321F49A2D997EA92E09C045
:10066000A2FE06C0B394B39404C08A2D867809F024
:10067000B394A3FC11C0A0FE06C0B21488F4280CE9
:10068000922C9B180EC0B21460F4B60180E290E088
:100690000E94B003B394F7CFB21418F42B1802C021
:1006A000982C212CA4FE10C0B60180E390E00E949B
:1006B000B003A2FE17C0A1FC03C088E790E002C00F
:1006C00088E590E0B6010CC08A2D867859F0A1FE2D
:1006D00002C08BE201C080E2A7FC8DE2B60190E08F
:1006E0000E94B003891438F4B60180E390E00E94C0
:1006F000B0039A94F7CF8A94F301E80DF11D80813D
:10070000B60190E00E94B0038110F5CF222009F4D9
:1007100042CEB60180E290E00E94B0032A94F6CF68
:10072000F6018681978102C08FEF9FEF2B96E2E161
:100730000C946604FC010590615070400110D8F7DC
:10074000809590958E0F9F1F0895FC016150704019
:1007500001900110D8F7809590958E0F9F1F0895F6
:100760000F931F93CF93DF93FB01238121FD03C0E0
:100770008FEF9FEF2CC022FF16C046815781248146
:1007800035814217530744F4A081B1819D012F5F49
:100790003F4F318320838C93268137812F5F3F4FDA
:1007A0003783268314C08B01EC01FB010084F185A3
:1007B000E02D0995892BE1F6D80116968D919C9133
:1007C0001797019617969C938E931697CE01DF91FB
:1007D000CF911F910F910895FA01AA27283051F166
:1007E000203181F1E8946F936E7F6E5F7F4F8F4F62
:1007F0009F4FAF4FB1E03ED0B4E03CD0670F781FC1
:10080000891F9A1FA11D680F791F8A1F911DA11DA5
:100810006A0F711D811D911DA11D20D009F46894DE
:100820003F912AE0269F11243019305D3193DEF686
:10083000CF010895462F4770405D4193B3E00FD03C
:10084000C9F7F6CF462F4F70405D4A3318F0495D27
:1008500031FD4052419302D0A9F7EACFB4E0A6950A
:100860009795879577956795BA95C9F7009761052C
:10087000710508959B01AC010A2E06945795479582
:1008800037952795BA95C9F7620F731F841F951F77
:10089000A01D08952F923F924F925F926F927F9288
:1008A0008F929F92AF92BF92CF92DF92EF92FF9280
:1008B0000F931F93CF93DF93CDB7DEB7CA1BDB0B2C
:1008C0000FB6F894DEBF0FBECDBF09942A883988D1
:1008D00048885F846E847D848C849B84AA84B984D8
:1008E000C884DF80EE80FD800C811B81AA81B981E4
:1008F000CE0FD11D0FB6F894DEBF0FBECDBFED01F8
:060900000895F894FFCFFA
:1009060000000001000000000000A300000000003D
:0C0916000002000000009400000000003F
:00000001FF
