:100000000C948D000C94AA000C94AA000C94AA00E5
:100010000C94AA000C94AA000C94AA000C94AA00B8
:100020000C94AA000C94AA000C94AA000C94AA00A8
:100030000C94AA000C94AA000C94AA000C94AA0098
:100040000C94AA000C94AA000C94AA000C94AA0088
:100050000C94AA000C94AA000C94AA000C94AA0078
:100060000C94AA000C94AA000D0A53442069732032
:1000700069646C696E672E000A2563000A0D0A0D1B
:10008000556E61626C6520746F20696E6974696178
:100090006C697A6520636172642E0072202D205293
:1000A00065616420436172640D0A0063202D204362
:1000B0006C6561722050617373776F72640D0A0012
:1000C0006C202D204C6F636B0D0A0075202D204194
:1000D0007474656D707420556E6C6F636B0D0A00DF
:1000E0003F202D2052656164204361726420537467
:1000F000617475730D0A000D0A506F6C7970686534
:100100006D7573205344204361726420546F6F6C8B
:100110000D0A0025635B324A000011241FBECFEF99
:10012000D8E0DEBFCDBF11E0A0E0B1E0E4E9FAE045
:1001300002C005900D92AC31B107D9F724E0ACE1D3
:10014000B1E001C01D92AB35B207E1F70E9470012A
:100150000C9448050C9400002A9A08958EBD0DB4A5
:1001600007FEFDCF8EB50895FF920F931F93CF9397
:10017000DF93C82FD42F152F062FF72E87FF09C026
:1001800040E050E0BA0187E70E94B4008230D0F529
:10019000CF770E94AC008FEF0E94AE002A988FEFBD
:1001A0000E94AE008C2F80640E94AE008F2D0E94B2
:1001B000AE00802F0E94AE00812F0E94AE008D2FD6
:1001C0000E94AE00C03421F0C83421F081E003C0A9
:1001D00085E901C087E80E94AE008FEF0E94AE0063
:1001E000D82F87FDFACFC03561F020F4C054C2305B
:1001F00040F002C0C73729F00E94AC008FEF0E9488
:10020000AE008D2FDF91CF911F910F91FF90089538
:10021000CF932FE788E391E0215080409040E1F7B1
:1002200000C000000E946C01882309F180915504F0
:10023000909156040E941C02C82F99279F938F9378
:1002400088E790E09F938F930E945A020F900F903F
:100250000F900F90CF3369F0C23769F0C53769F05E
:10026000CC3669F0C33669F00E9408010BC0C3E0C8
:1002700009C0C4E007C0C5E005C0C7E003C0C6E0D0
:1002800001C0CBE08C2FCF910895CF93C82F8A3037
:1002900019F48DE00E9445018091C00085FFFCCFDC
:1002A000C093C600CF9108958091C00087FFFCCF16
:1002B0008091C60008951092C5008CE08093C40020
:1002C000E0ECF0E080818D7F808386E08093C20047
:1002D00088E18093C10008958091C00080780895DE
:1002E000229A0E94AC0085B1886285B984B1886287
:1002F00084B92C9A83E58CBD0E945B018EE091E06D
:10030000909358048093570420E031E030935604D2
:100310002093550490935A048093590478941F9223
:100320008BE18F9383E191E09F938F930E945A0218
:1003300087EF90E09F938F930E945A0280EE90E0A7
:100340009F938F930E945A028BEC90E09F938F9320
:100350000E945A0280EC90E09F938F930E945A0271
:100360008BEA90E09F938F930E945A028BE990E072
:100370009F938F930E945A02E3E3F3E08DB79EB7F9
:1003800040960FB6F8949EBF0FBE8DBF80E090E000
:1003900039E8282F87FD2327208347E050E060813C
:1003A000262F220F66FD2327208341505109B9F7DC
:1003B00001963196811521E0920759F70CE710E07C
:1003C00088E6C82E80E0D82E0E940801F82E809181
:1003D0001C01F81649F1833039F5109233040E945C
:1003E000AC00CAE0D0E08FEF0E94AE002197D9F7B1
:1003F00040E050E0BA0180E40E94B4008130B9F4DA
:10040000DF92CF920E945A0240E052E060E070E03A
:1004100080E50E94B4004AEA51E060E070E088E4C0
:100420000E94B4000F900F90F0921C01CDCF1F934B
:100430000F930E945A02F6CFCF93DF93EC012B81EA
:1004400020FF33C026FF0AC02F7B2B838E819F8124
:1004500001969F838E838A8190E029C022FF0FC07E
:10046000E881F9818081082E000C990B009719F41E
:1004700020622B831AC03196F983E8830EC0EA8587
:10048000FB85099597FF09C02B81019611F080E249
:1004900001C080E1822B8B8308C02E813F812F5FBA
:1004A0003F4F3F832E83992702C08FEF9FEFDF914D
:1004B000CF910895A0E0B0E0E0E6F2E00C941F05D3
:1004C000AE01495F5F4FDA016D917D91AD0105E5A8
:1004D00014E0F80182819381DC0113962C9113972B
:1004E000286013962C930E948002D8011296ED91F9
:1004F000FC9113972381277F2383E4E00C943B0531
:10050000ABE0B0E0E6E8F2E00C9411056C017B0191
:100510008A01FC0117821682838181FFCCC1CE0142
:1005200001963C01F6019381F70193FD859193FFBC
:1005300081917F01882309F4BAC1853239F493FD92
:10054000859193FF81917F01853229F4B60190E076
:100550000E947704E7CF912C212C312CFFE1F31579
:10056000D8F08B3279F038F4803279F08332A1F40C
:10057000232D20611DC08D3261F0803369F4232D5D
:10058000216016C0832D8260382EE32DE4603E2E5C
:100590002AC0F32DF8601DC037FC2DC020ED280FB8
:1005A0002A3040F08E32B9F436FC81C1232D20640C
:1005B000322E19C036FE06C08AE0989E200D112406
:1005C000922E11C0EAE02E9E200D1124222EF32D32
:1005D000F0623F2E08C08C3621F4832D8068382EBF
:1005E00002C0883641F4F70193FD859193FF819114
:1005F0007F018111B3CF982F9F7D9554933028F4BC
:100600000C5F1F4F9FE399830DC0833631F0833712
:1006100071F0833509F059C021C0F80180818983C8
:100620000E5F1F4F88248394912C530113C028011F
:10063000F2E04F0E511CF801A080B18036FE03C0DD
:10064000692D70E002C06FEF7FEFC5010E946C045E
:100650004C018201F32DFF773F2E16C0280122E0C6
:10066000420E511CF801A080B18036FE03C0692DF6
:1006700070E002C06FEF7FEFC5010E9461044C0182
:10068000F32DF0683F2E820133FC1BC0822D90E0D9
:1006900088169906B0F4B60180E290E00E947704D3
:1006A0002A94F4CFF50137FC859137FE81915F01E3
:1006B000B60190E00E94770421102A9421E0821A6A
:1006C00091088114910471F7E8C0843611F08936DD
:1006D00041F5F80137FE07C0608171818281938105
:1006E0000C5F1F4F08C060817181072E000C880BC2
:1006F000990B0E5F1F4FF32DFF763F2E97FF09C01A
:1007000090958095709561957F4F8F4F9F4FF068C2
:100710003F2E2AE030E0A3010E94B304882E861801
:1007200045C0853731F4232D2F7EB22E2AE030E0EC
:1007300025C0932D997FB92E8F36C1F018F48835D6
:1007400079F0B5C0803719F0883721F0B0C0E92FB3
:10075000E061BE2EB4FE0DC0FB2DF460BF2E09C0BB
:1007600034FE0AC0292F2660B22E06C028E030E0F1
:1007700005C020E130E002C020E132E0F801B7FE20
:1007800007C060817181828193810C5F1F4F06C019
:100790006081718180E090E00E5F1F4FA3010E9495
:1007A000B304882E8618FB2DFF773F2E36FE0DC032
:1007B000232D2E7FA22E891458F434FE0BC032FC58
:1007C00009C0832D8E7EA82E05C0B82CA32C03C093
:1007D000B82C01C0B92CA4FE0FC0FE01E80DF11D1C
:1007E0008081803321F49A2D997EA92E09C0A2FE22
:1007F00006C0B394B39404C08A2D867809F0B394EC
:10080000A3FC11C0A0FE06C0B21488F4280C922CE0
:100810009B180EC0B21460F4B60180E290E00E9412
:100820007704B394F7CFB21418F42B1802C0982CA5
:10083000212CA4FE10C0B60180E390E00E94770452
:10084000A2FE17C0A1FC03C088E790E002C088E5C3
:1008500090E0B6010CC08A2D867859F0A1FE02C046
:100860008BE201C080E2A7FC8DE2B60190E00E941D
:100870007704891438F4B60180E390E00E9477048D
:100880009A94F7CF8A94F301E80DF11D8081B601A7
:1008900090E00E9477048110F5CF222009F442CE27
:1008A000B60180E290E00E9477042A94F6CFF60128
:1008B0008681978102C08FEF9FEF2B96E2E10C9427
:1008C0002D05FC010590615070400110D8F780950E
:1008D00090958E0F9F1F0895FC016150704001900C
:1008E0000110D8F7809590958E0F9F1F08950F9354
:1008F0001F93CF93DF93FB01238121FD03C08FEF73
:100900009FEF2CC022FF16C046815781248135817C
:100910004217530744F4A081B1819D012F5F3F4FDF
:10092000318320838C93268137812F5F3F4F37831C
:10093000268314C08B01EC01FB010084F185E02DBE
:100940000995892BE1F6D80116968D919C91179700
:10095000019617969C938E931697CE01DF91CF91B7
:100960001F910F910895FA01AA27283051F12031E3
:1009700081F1E8946F936E7F6E5F7F4F8F4F9F4F33
:10098000AF4FB1E03ED0B4E03CD0670F781F891F75
:100990009A1FA11D680F791F8A1F911DA11D6A0F43
:1009A000711D811D911DA11D20D009F468943F91F6
:1009B0002AE0269F11243019305D3193DEF6CF01F5
:1009C0000895462F4770405D4193B3E00FD0C9F7BB
:1009D000F6CF462F4F70405D4A3318F0495D31FD28
:1009E0004052419302D0A9F7EACFB4E0A69597957B
:1009F000879577956795BA95C9F700976105710551
:100A000008959B01AC010A2E06945795479537959A
:100A10002795BA95C9F7620F731F841F951FA01DF4
:100A200008952F923F924F925F926F927F928F9292
:100A30009F92AF92BF92CF92DF92EF92FF920F936D
:100A40001F93CF93DF93CDB7DEB7CA1BDB0B0FB677
:100A5000F894DEBF0FBECDBF09942A883988488834
:100A60005F846E847D848C849B84AA84B984C884CA
:100A7000DF80EE80FD800C811B81AA81B981CE0FC1
:100A8000D11D0FB6F894DEBF0FBECDBFED010895A6
:040A9000F894FFCF08
:100A940000000001000000000000540100000000FC
:0C0AA400000200000000450100000000FE
:00000001FF
