:100000000C94BE010C94DB010C94DB010C94DB011D
:100010000C94DB010C94DB010C94DB010C94DB01F0
:100020000C94DB010C94DB010C94DB010C94DB01E0
:100030000C94DB010C94DB010C94DB010C94DB01D0
:100040000C94DB010C94DB010C94DB010C94DB01C0
:100050000C94DB010C94DB010C94DB010C94DB01B0
:100060000C94DB010C94DB010A646F6E652E0A00B0
:100070000A45786368616E696E6720427974653AF3
:10008000202563002563000A0A506C6561736520B2
:10009000456E7465722050617373776F72643A0DA8
:1000A0000A002025730A0D00253032582000202533
:1000B000730A0D253034583A20000A0D436F6E74D0
:1000C000656E7473206F6620626C6F636B2062755F
:1000D000666665723A004C6F636B65640A00556E24
:1000E0006C6F636B65640A000D0A50617373776F00
:1000F0007264205374617475733A20000A2563009A
:100100000A4361726420697320616C72656164796D
:1001100020756E6C6F636B65642E000A556E6C6F94
:10012000636B204661696C65643A20556E61626C50
:100130006520746F20756E6C6F636B2063617264F1
:100140002E000A556E6C6F636B204661696C6564A6
:100150003A20417474656D7074696E6720756E6CB9
:100160006F636B20616761696E2E000A417474656C
:100170006D7074696E6720746F20756E6C6F636B41
:1001800020636172642E000A5468652063617264A2
:1001900020697320616C7265616479206C6F636B98
:1001A00065642E000A4661696C65643A207468656E
:1001B00072652077617320616E206572726F7220A4
:1001C000617474656D7074696E6720746F206C6FF4
:1001D000636B20636172642E000A417474656D70F4
:1001E00074696E6720746F206C6F636B206361723B
:1001F000642E000D0A417474656D7074696E672019
:10020000746F207365742070617373776F72642EDE
:10021000000A4572726F723A20556E61626C6520F9
:10022000746F207265616420626C6F636B2E000ACC
:100230005468652063617264206973206E6F742056
:100240006C6F636B65642E000A4661696C65643A85
:100250002054686520636172642069732073746937
:100260006C6C206C6F636B65642E000A4661696C70
:10027000656421205265747279696E672E2E2E0096
:100280000D0A436172642052656769737465727305
:1002900020636F756C64206E6F74206265207265D8
:1002A00061642E002530325820000D0A4349443A3B
:1002B00020002530325820000D0A4353443A2000D4
:1002C0002530325820000D0A4F43523A20000D0AC3
:1002D0004361726420547970653A202564000A0DE8
:1002E0000A0D556E61626C6520746F20696E6974C9
:1002F00069616C697A6520636172642E0072202DD9
:10030000205265616420436172640D0A0063202DF0
:1003100020436C6561722050617373776F72640D56
:100320000A006C202D204C6F636B0D0A0075202D88
:1003300020417474656D707420556E6C6F636B0D25
:100340000A003F202D2052656164204361726420C1
:100350005374617475730D0A000D0A506F6C7970D7
:1003600068656D7573205344204361726420546F37
:100370006F6C0D0A0025635B324A000011241FBE1A
:10038000CFEFD8E0DEBFCDBF11E0A0E0B1E0E0E804
:10039000F3E102C005900D92AC31B107D9F723E02B
:1003A000ACE1B1E001C01D92AB35B207E1F70E94AC
:1003B0002C030C94BE090C9400002A9A08958EBD5B
:1003C0000DB407FEFDCF8EB50895FF920F931F93D6
:1003D000CF93DF93C82FD42F152F062FF72E87FF2B
:1003E00009C040E050E0BA0187E70E94E501823091
:1003F000B0F5CF770E94DD018FEF0E94DF012A98D0
:100400008FEF0E94DF018C2F80640E94DF018F2D0F
:100410000E94DF01802F0E94DF01812F0E94DF01F7
:100420008D2F0E94DF01C83411F487E801C085E9EF
:100430000E94DF018FEF0E94DF01D82F87FDFACFE6
:10044000C03539F020F4C054C23040F402C0C73780
:1004500029F40E94DD018FEF0E94DF018D2FDF91D3
:10046000CF911F910F91FF900895CF93DF9340E0BC
:1004700050E0BA018DE40E94E501C1E3D3E0888336
:100480008FEF0E94DF0189838FEF0E94DF0180E000
:10049000DF91CF910895CF93DF93C4E6D0E08FEF43
:1004A0000E94DF018F3F11F42197C9F7DF91CF91AF
:1004B0000895EF92FF920F931F93CF93DF932FE74F
:1004C00088E391E0215080409040E1F700C00000B7
:1004D00087E890E09F938F930E94CD060F900F9036
:1004E000C0E084E8E82E80E0F82E0E9428038823EC
:1004F000E1F380915503909156030E948F068C0181
:1005000099279F938F93FF92EF920E94CD060F90B1
:100510000F900F900F900F3711F4C150E6CF0D30B0
:1005200049F4C0933403DF91CF911F910F91FF9055
:10053000EF900895EC2FF0E0EF5DFC4F0083CF5F6C
:10054000D4CFEF92FF920F931F93CF93DF93C82FD7
:100550000E94DD012A9840E050E0BA018AE60E943C
:10056000E501882311F08FEF45C08EEF0E94DF0177
:100570008C2F87700E94DF01809134030E94DF017D
:1005800001E213E0C0E0D0E080E7E82E80E0F82E42
:100590008091340390E0C817D90788F4F80180816E
:1005A0001F928F93FF92EF920E94CD06F8018081F7
:1005B0000E94DF010F900F900F900F9003C08FEFFC
:1005C0000E94DF0121960F5F1F4FC115F2E0DF0788
:1005D000F9F68FEF0E94DF018FEF0E94DF01CFEF6E
:1005E000DFEF8FEF0E94DF01811103C02197C9F770
:1005F000BACF80E0DF91CF911F910F91FF90EF90E4
:100600000895CF93C82F8A3019F48DE00E9401031A
:100610008091C00085FFFCCFC093C600CF910895A4
:100620008091C00087FFFCCF8091C6000895109292
:10063000C5008CE08093C400E0ECF0E080818D7F09
:10064000808386E08093C20088E18093C100089592
:100650008091C00080780895CF93DF93CDB7DEB747
:1006600062970FB6F894DEBF0FBECDBF229A0E94EC
:10067000DD0185B1886285B984B1886284B92C9A1C
:1006800083E58CBD0E9417038EE091E090935803A0
:100690008093570320E031E03093560320935503B5
:1006A00090935A038093590378941F928BE18F9310
:1006B00085E793E09F938F930E94CD0689E593E0B1
:1006C0009F938F930E94CD0682E493E09F938F9334
:1006D0000E94CD068DE293E09F938F930E94CD06FA
:1006E00082E293E09F938F930E94CD068DE093E08A
:1006F0009F938F930E94CD068DEF92E09F938F93EF
:100700000E94CD060FB6F894DEBF0FBECDBFF4EA4F
:100710002F2EF2E03F2E9FE7E8E3F1E09150E0401A
:10072000F040E1F700C000000E942803882389F10F
:1007300080915503909156030E948F068C011127DA
:100740001F930F938CEF90E09F938F930E94CD06A1
:100750000F900F900F900F900C361105A1F04CF4F4
:100760000F331105C9F00336110581F49BE09A8B14
:1007700015C00237110529F00537110539F427E0B6
:100780000CC0F5E007C086E08A8B08C0E3E0EA8B86
:1007900005C0F3E0FA8B02C024E02A8B80911C0193
:1007A0009A89891709F449C2833009F046C2109228
:1007B00033030E94DD010AE010E08FEF0E94DF01A9
:1007C00001501109D1F700E110E040E050E0BA011A
:1007D00080E40E94E501813009F433C2015011091F
:1007E000A1F78EED92E09F938F930E94CD060F901C
:1007F0000F90EA89E43009F0F0C0809133031F9232
:100800008F938EEC92E09F938F930E94CD060F9072
:100810000F900F900F90809133038230E1F44AEAF9
:1008200051E060E070E088E40E94E50181112BC096
:10083000EDE1EE2EE1E0FE2E01E211E08FEF0E94ED
:10084000DF01F70181937F010E171F07B9F78FEFC3
:100850000E94DF0118C040E050E0BA018AE70E9420
:10086000E501811110C07DE1E72E71E0F72E01E274
:1008700011E08FEF0E94DF01F70181937F010E17D6
:100880001F07B9F7E4CF40E050E0BA0189E40E94C5
:10089000E5010E944B028E3F09F030C205E313E0F0
:1008A00065E4A62E63E0B62E78018FEF0E94DF018B
:1008B000F70181937F01AE16BF06B9F78FEF0E9453
:1008C000DF0140E050E0BA018AE40E94E5010E94A5
:1008D0004B028E3F09F012C245E4642E43E0742EB1
:1008E00055E5C52E53E0D52E73018FEF0E94DF0131
:1008F000F70181937F01CE16DF06B9F78FEF0E94D3
:10090000DF010E9435028111F9C186EC92E09F93CC
:100910008F930E94CD062DE1E22E21E0F22E31E2EE
:10092000832E31E0932E0F900F90F70181917F017C
:100930001F928F9380EC92E09F938F930E94CD063D
:100940000F900F900F900F908E149F0471F788EB0B
:1009500092E09F938F930E94CD060F900F90F80125
:1009600081918F011F928F9382EB92E09F938F93DF
:100970000E94CD060F900F900F900F90A016B10619
:1009800071F78AEA92E09F938F930E94CD060F90B1
:100990000F90F30181913F011F928F933F922F920D
:1009A0000E94CD060F900F900F900F90C614D704A1
:1009B00081F70E94350288EE90E09F938F930E940A
:1009C000CD06809132030F900F9080FD03C08EED15
:1009D00090E02DC186ED90E02AC1FA89FB3029F51F
:1009E0000E9435028091320380FF46C00E94590266
:1009F00082E00E94A1020E9435028091320380FFB2
:100A000038C08BE692E09F938F930E94CD0682E0E0
:100A10000E94A1020E943502809132030F900F9034
:100A200080FF0BC188E492E002C12A89253039F1A8
:100A30009A89963009F4B9C0EA89E73009F0FDC017
:100A40000E9435028091320380FFEFC00E9459025C
:100A50008BE691E09F938F930E94CD0680E40E94E5
:100A6000A1020E943502809132030F900F9080FD09
:100A7000C8C088E690E0DBC08FE292E0D8C040E0DA
:100A800050E0BA0181E50E94E50181113AC10E945E
:100A90004B028E3F09F035C191E2E92E91E0F92E2B
:100AA00001E213E067018FEF0E94DF01F6018193FD
:100AB0006F010E171F07B9F78FEF0E94DF018FEF4D
:100AC0000E94DF01198A19828AEB90E09F938F932D
:100AD0000E94CD060F900F90412C512C32018EE2D6
:100AE000C82E53014201FFE08F229924AA24BB247F
:100AF00081149104A104B104A9F47F926F925F92D2
:100B00004F9281E090E08C0F9D1F9F938F93EEEAB0
:100B1000F0E0FF93EF930E94CD060FB6F894DEBF8E
:100B20000FBECDBFF70180811F928F9388EA90E0BE
:100B30009F938F930E94CD06F701D1907F010D2DD9
:100B400010E0C8010E9487060F900F900F900F9041
:100B5000E1E0F0E0EC0FFD1FE80DF91D892B29F411
:100B6000005311090A30110510F4D08201C0C0826F
:100B7000FFEF4F1A5F0A6F0A7F0A411422E0520604
:100B80006104710409F0ADCF81E090E08C0F9D1FEE
:100B90009F938F9382EA90E09F938F930E94CD065C
:100BA0000F900F900F900F9048C00E9435028091D7
:100BB000320380FD23C00E94590283EF91E09F938E
:100BC0008F930E94CD0681E00E94A1020E9435020F
:100BD00089ED91E09F938F930E94CD0684E00E945F
:100BE000A1020E943502809132030F900F900F9066
:100BF0000F9080FD3ECF84EA91E019C087E891E034
:100C000016C082E491E09F938F930E94CD0680E40A
:100C10000E94A1020E943502809132030F900F9032
:100C200080FF0BC08BE191E002C080E091E09F93D8
:100C30008F930E94CD060F900F90FA89F0931C01BC
:100C40006ACD40E052E060E070E080E50E94E5019E
:100C50004AEA51E060E070E088E40E94E5018130FA
:100C600089F140E050E0BA018AE70E94E501813055
:100C700019F000E21EE410C08FEF0E94DF018FEF39
:100C80000E94DF018FEF0E94DF018FEF0E94DF01E2
:100C9000F0CF0150110941F040E050E0BA0181E489
:100CA0000E94E5018111F5CF40E052E060E070E084
:100CB00080E50E94E50181E0809333038FEF0E947D
:100CC000DF0197CD8FEF0E94DF018FEF0E94DF01E0
:100CD0008FEF0E94DF018FEF0E94DF0100E21EE430
:100CE00040E050E060E070E489EE0E94E501882376
:100CF00019F001501109A1F782E0DECF80E892E0FF
:100D000096CF81E192E093CF85FD0C94D408806268
:100D100091110C94D40881568A51D8F70895CF9335
:100D2000DF93EC012B8120FF33C026FF0AC02F7B0D
:100D30002B838E819F8101969F838E838A8190E091
:100D400029C022FF0FC0E881F9818081082E000CA4
:100D5000990B009719F420622B831AC03196F983FE
:100D6000E8830EC0EA85FB85099597FF09C02B81B2
:100D7000019611F080E201C080E1822B8B8308C0D4
:100D80002E813F812F5F3F4F3F832E83992702C0E3
:100D90008FEF9FEFDF91CF910895A0E0B0E0E3EDFA
:100DA000F6E00C949509AE01495F5F4FDA016D9151
:100DB0007D91AD0105E513E0F80182819381DC01AD
:100DC00013962C911397286013962C930E94F30688
:100DD000D8011296ED91FC9113972381277F2383ED
:100DE000E4E00C94B109ABE0B0E0E9EFF6E00C947C
:100DF00087096C017B018A01FC01178216828381BD
:100E000081FFCCC1CE0101963C01F6019381F7012F
:100E100093FD859193FF81917F01882309F4BAC1E5
:100E2000853239F493FD859193FF81917F0185325D
:100E300029F4B60190E00E94ED08E7CF912C212C17
:100E4000312CFFE1F315D8F08B3279F038F4803291
:100E500079F08332A1F4232D20611DC08D3261F021
:100E6000803369F4232D216016C0832D8260382ED3
:100E7000E32DE4603E2E2AC0F32DF8601DC037FC40
:100E80002DC020ED280F2A3040F08E32B9F436FC08
:100E900081C1232D2064322E19C036FE06C08AE09F
:100EA000989E200D1124922E11C0EAE02E9E200D56
:100EB0001124222EF32DF0623F2E08C08C3621F42F
:100EC000832D8068382E02C0883641F4F70193FDE7
:100ED000859193FF81917F018111B3CF982F9F7DE1
:100EE0009554933028F40C5F1F4F9FE399830DC0F6
:100EF000833631F0833771F0833509F059C021C052
:100F0000F801808189830E5F1F4F88248394912C80
:100F1000530113C02801F2E04F0E511CF801A080CC
:100F2000B18036FE03C0692D70E002C06FEF7FEF25
:100F3000C5010E94E2084C018201F32DFF773F2E8C
:100F400016C0280122E0420E511CF801A080B18099
:100F500036FE03C0692D70E002C06FEF7FEFC50160
:100F60000E94D7084C01F32DF0683F2E820133FC1C
:100F70001BC0822D90E088169906B0F4B60180E27D
:100F800090E00E94ED082A94F4CFF50137FC85919A
:100F900037FE81915F01B60190E00E94ED082110BB
:100FA0002A9421E0821A91088114910471F7E8C013
:100FB000843611F0893641F5F80137FE07C06081AB
:100FC0007181828193810C5F1F4F08C060817181A4
:100FD000072E000C880B990B0E5F1F4FF32DFF7629
:100FE0003F2E97FF09C090958095709561957F4F32
:100FF0008F4F9F4FF0683F2E2AE030E0A3010E9400
:101000002909882E861845C0853731F4232D2F7E77
:10101000B22E2AE030E025C0932D997FB92E8F366D
:10102000C1F018F4883579F0B5C0803719F08837E9
:1010300021F0B0C0E92FE061BE2EB4FE0DC0FB2D43
:10104000F460BF2E09C034FE0AC0292F2660B22EDC
:1010500006C028E030E005C020E130E002C020E119
:1010600032E0F801B7FE07C060817181828193810F
:101070000C5F1F4F06C06081718180E090E00E5FC1
:101080001F4FA3010E942909882E8618FB2DFF7788
:101090003F2E36FE0DC0232D2E7FA22E891458F42C
:1010A00034FE0BC032FC09C0832D8E7EA82E05C0F5
:1010B000B82CA32C03C0B82C01C0B92CA4FE0FC0BF
:1010C000FE01E80DF11D8081803321F49A2D997E77
:1010D000A92E09C0A2FE06C0B394B39404C08A2D01
:1010E000867809F0B394A3FC11C0A0FE06C0B21428
:1010F00088F4280C922C9B180EC0B21460F4B60130
:1011000080E290E00E94ED08B394F7CFB21418F497
:101110002B1802C0982C212CA4FE10C0B60180E32D
:1011200090E00E94ED08A2FE17C0A1FC03C088E772
:1011300090E002C088E590E0B6010CC08A2D867868
:1011400059F0A1FE02C08BE201C080E2A7FC8DE253
:10115000B60190E00E94ED08891438F4B60180E3EE
:1011600090E00E94ED089A94F7CF8A94F301E80D7D
:10117000F11D8081B60190E00E94ED088110F5CF4D
:10118000222009F442CEB60180E290E00E94ED08F0
:101190002A94F6CFF6018681978102C08FEF9FEFE8
:1011A0002B96E2E10C94A309992788270895FC0166
:1011B0000590615070400110D8F7809590958E0F82
:1011C0009F1F0895FC016150704001900110D8F7F5
:1011D000809590958E0F9F1F08950F931F93CF9327
:1011E000DF93FB01238121FD03C08FEF9FEF2CC014
:1011F00022FF16C04681578124813581421753074B
:1012000044F4A081B1819D012F5F3F4F3183208342
:101210008C93268137812F5F3F4F3783268314C0FD
:101220008B01EC01FB010084F185E02D0995892BF0
:10123000E1F6D80116968D919C9117970196179615
:101240009C938E931697CE01DF91CF911F910F91B2
:101250000895FA01AA27283051F1203181F1E8944C
:101260006F936E7F6E5F7F4F8F4F9F4FAF4FB1E099
:101270003ED0B4E03CD0670F781F891F9A1FA11D94
:10128000680F791F8A1F911DA11D6A0F711D811D95
:10129000911DA11D20D009F468943F912AE0269F5A
:1012A00011243019305D3193DEF6CF010895462FB9
:1012B0004770405D4193B3E00FD0C9F7F6CF462F9A
:1012C0004F70405D4A3318F0495D31FD4052419303
:1012D00002D0A9F7EACFB4E0A695979587957795C0
:1012E0006795BA95C9F700976105710508959B0147
:1012F000AC010A2E06945795479537952795BA95D0
:10130000C9F7620F731F841F951FA01D08952F92A8
:101310003F924F925F926F927F928F929F92AF9285
:10132000BF92CF92DF92EF92FF920F931F93CF93D2
:10133000DF93CDB7DEB7CA1BDB0B0FB6F894DEBF69
:101340000FBECDBF09942A88398848885F846E848F
:101350007D848C849B84AA84B984C884DF80EE80D9
:10136000FD800C811B81AA81B981CE0FD11D0FB6E2
:10137000F894DEBF0FBECDBFED010895F894FFCF06
:101380000000000100000000000010030000000049
:0C1390000002000000000103000000004B
:00000001FF
